:020000040000FA
:100000000204E2021803FFFFFFFFFF02180BFFFFCD
:10001000FFFFFF021813FFFFFFFFFF02181BFFFF88
:10002000FFFFFF021823FFFFFFFFFF02182BFFFF58
:10003000FFFFFF021833FFFFFFFFFF02183BFFFF28
:10004000FFFFFF021843FFFFFFFFFF02184BFFFFF8
:10005000FFFFFF021853FFFFFFFFFF02185BFFFFC8
:10006000FFFFFF021863FFFFFFFFFF02186BFFFF98
:10007000FFFFFF021873FFFFFFFFFF02187BFFFF68
:10008000FFFFFF021883FFFFFFFFFF02188B00C274
:100090000100FFFFFFFFFFFFFFFF0403090424032C
:1000A00054006500780061007300200049006E0074
:1000B00073007400720075006D0065006E007400BE
:1000C00073002403520065006D006F005400490066
:1000D000200043004300320035003300310020008F
:1000E00043004400430000035F005F0030005800FD
:1000F0000000000000000000000000000000000000
:1001000000000000000000000000000000000000EF
:10011000303132333435363738394142434445463D
:10012000D8022D032D032D032D03350374FB120478
:100130008E75080175090078081204BE7402120554
:1001400028AC82AD837AFF7B07790212061F740206
:10015000120474851882851983E054606050E0139E
:100160001313541F5403600914700C78407AF680FE
:100170000A78207A8F800478807AF77B70E0A2E694
:1001800050185407F87401B800028004C333D8FC37
:10019000F88A828B83E048F08014E842F7800F757C
:1001A0008F0075F60075F70002180012053212056F
:1001B000D7E9606553BEFBE59DA2E650FA0078F8EA
:1001C000790100E824FF18E934FFF9E84970F37574
:1001D000C6807480659E70FA43BE0453F4FEC290DC
:1001E00043FE019062707408F07403F5D575D40174
:1001F0009003C512051C900392120510900396E41B
:10020000F0A3F0A37408F07AFF7BFF120631120509
:10021000531206071205D180F875080478081204F5
:10022000BE7403120528AC82AD837A907B007903FB
:1002300012061F74021204747401120528E0F4708F
:1002400003A3E0F4601B7401120528E0F8A3E0F9B1
:100250007403120528E0687003A3E06970030201CB
:100260009F1205D7E960030201AE80F52518C5820B
:10027000C0E0E51934FFC583C0E0E518C3958224CA
:10028000F810AF0885831985821880088583198541
:100290008218D2AFCEF0A3E520F0A37808E608F0EC
:1002A000A3DEFAEFF0A3E58124FAF8E608F0A3E66E
:1002B00008F0A3E608F0A30808E608F0A3E608F0B3
:1002C000A315811581D0E0FED0E0F81581158115C8
:1002D00081E8C0E0EEC0E02212010002020000202E
:1002E0005104B11609000102030109024300020191
:1002F0000080190904000001020201000524001019
:10030000010424020205240600010524010001075E
:1003100005820340004009040100020A00000007B2
:1003200005840240000007050402400000F30200BB
:10033000001603000012063CB90003020377E490A4
:10034000030178C579018002F0A3D8FCD9FA9003A3
:10035000C5AA82AB8390008E789F79018015E493C3
:10036000A3AC82AD838A828B83F0A3AA82AB838CF9
:10037000828D83D8E9D9E775822C758301740012C8
:100380000421758237758306740012042185198350
:10039000851882E0A3FEE0A3F5207808E0A3F60824
:1003A000DFFAE0A3FFE0A3C0E0E0A3C0E0E0A3C069
:1003B000E0E0A3C0E0E0A3C0E010AF0885821885AC
:1003C00083198008858218858319D2AFD083D082A3
:1003D00002042774038000CCC0E0EDC0E0E518C340
:1003E0009CCCAD1950011D10AF068C188D198006DC
:1003F0008C188D19D2AF120400D0E0FDD0E0FC22A1
:10040000CAC0E0E0A3C582CCC582C583CDC583F058
:10041000A3C582CCC582C583CDC583DAE6D0E0CA48
:1004200022C09FF59FE473D09F22D083D082C09FCB
:10043000E493C0E0740193C0E0740293F59F222519
:1004400018F58210AF08F518400215198008F51844
:1004500040021519D2AF85198322BB0102E722C0E1
:1004600082C08389828A83BB0003E08002E493D048
:1004700083D08222C0D0251810AF08F5185002058D
:10048000198008F51850020519D2AFD0D0222518CE
:1004900010AF08F518400215198008F5184002152C
:1004A00019D2AF22BB000EC082C0838A838982F03A
:1004B000D083D08222BB0101F7227403800474022E
:1004C0008000C0E0F40412043FD0E0120503227063
:1004D0000422600D18C6C333C608C633C6D5E0F47F
:1004E000182275D00075813F751801751903759F25
:1004F00000020335600C08C6C313C618C613C6D560
:10050000E0F422CAC0E0E6F0A308DAFAD0E0FA226A
:10051000EAF0A3EBF0A3ECF0A3EDF022E0FAA3E005
:10052000FBA3E0FCA3E0FD222518F582E43519F5D4
:100530008322C2AF75D69F0200002212042AEB1359
:100540000012042A0D140012042A45140012042A71
:100550007B140012042A860D0012042ADB0D0012FF
:10056000042AFA0D0012042A41100012042A7910FC
:100570000012042A9D100012042AD4110012042A29
:1005800029F90712042A41060012042A080700125A
:10059000042AF9070012042A0A080012042A7D130B
:1005A0000012042A67080012042A5B0A0012042AB7
:1005B000B30B0012042AE30B0012042AAF0C001242
:1005C000042A0C0D0012042A9B170012042A77FA41
:1005D0000712042ADF100012042A24170012042A2A
:1005E000DE160012042A74FA0712042A72FA07129D
:1005F000042A61FA0712042A9E160012042A5FFADE
:100600000712042A5DFA0712042A9E150012042A12
:10061000E9F80712042A85F80712042A28FA0712B3
:10062000042A00F80712042A1B080012042AFAF907
:100630000712042A0EF90700000080FB790122E46A
:100640007374F612026C120CA4700FA3A3E0700A6C
:10065000A3E064027002A3E060089003A2740402A5
:1006600007029003B4E02480600814602D14603AFF
:1006700080E89003B8E070E29003AEE06004780197
:10068000800278009003C3E8F0A3E4F09003ADE0AB
:1006900060559003C3E04402804990039BE06404EA
:1006A00070B89003C3E4F0A3803C9003B8E0547F9B
:1006B000F50890039BE0640470A0E508C39406501D
:1006C000999003B8E05480600C1207ECE06403706A
:1006D0000C7801800A1207DFE0640360F478009070
:1006E00003C3E8F0A3E4F09003A2E0640460149074
:1006F00003AF74C3F0A37403F0A3E4F0A374021275
:100700000D03F07F0202038D74F612026CE9FE9075
:1007100003BA120CA7701090039BE0640460109061
:1007200003B8120CA760089003A274040207D990C2
:1007300003B4E0541F600814600D14602380E89037
:1007400003B6E06401600579000207DCEE9003ADBA
:10075000F060047905800279067A001205E3807A58
:100760009003B8E0547FFA9003B6E070DAEAC394DD
:100770000650B4EA90620EF09003B8E05480602A0C
:10078000EE6004741080027440906211F0EE600418
:1007900074038001E4C0E08A081207ECD0E0F0EEB8
:1007A00060047908802C79078028EE60047420802A
:1007B000027480906214F0EE600474038001E4C05F
:1007C000E08A081207DFD0E0F0EE6004790A8002C8
:1007D00079091205E390620EE4F0790102070374CF
:1007E000A72508F58274033400F5832274A2250836
:1007F000F58274033400F58322C082C0837900122D
:100800000589E970031205EF8056C082C083790123
:10081000120589E970031205E98045C082C0839002
:1008200003B8120CA77014A3120CA7700E9003B695
:10083000E05480F8A3E0F9E84960079003A274044B
:10084000801D9003B6E0906200F090039B6009E089
:100850006402700C74038007E0640370037402F098
:10086000D083D08202042774F412026C9003B7E0A4
:1008700014600814601914604C806412053B120A5D
:1008800024A37B8012045AA3F0A3E4F00209DB90B6
:1008900003B6E0FA7900120541120A247B80E924AC
:1008A000020909EA3400FA12045AFC1919E0FAA301
:1008B000E92403090909EA3400FA12045AF9ECA3FD
:1008C000F0A3E980C69003B6E0F912054D9003AF9E
:1008D000EAF0A3EBF0A3E4120A33A37B0080A59017
:1008E00003AFE4F0A3F0A3F0FA0209AF75090074B6
:1008F0000378081204CF120A3DE493C0E09003B7D6
:10090000E0F8D0E06860030209AE8A087509007457
:100910000378081204CF120A3DA3E493C0E09003C9
:10092000B6E0F8D0E06860030209AE8A08750900F5
:10093000740378081204CF120A55E493C0E09003C0
:10094000B9E0F8D0E06870668A0875090074037829
:10095000081204CF120A55A3E493C0E09003B8E054
:10096000F8D0E06870488A087509007403780812A6
:1009700004CF120A49F988828983A3A3A3A3E4932D
:10098000F508740193F5099003AFE508F0A3E509B4
:10099000F0A37480F088828983A3A3A3A3A3A3E414
:1009A00093F8740193F99003B2E8F0A3E9F00A8A8E
:1009B0000890045B120BAD75830475825DE0C398EB
:1009C000F50AA3E099F50B7403780A1204F4C3E561
:1009D00008950AE4950B50030208EC9003AFE0FC85
:1009E000A3E0FDA3E0FEEC4D4E9003A2700474045E
:1009F000802CE0640460289003B2120BAD75830371
:100A00007582BAC3E098A3E099500E9003BA120B16
:100A1000AD9003B2E8F0A3E9F09003A27401F07F77
:100A20000402038D9003AFEAF0A3EBF0A3748012ED
:100A30000A3322F09003AFE0F9A3E0FA22120A4150
:100A400022120A498882F5832290045BE02508F887
:100A5000A3E0350922120A41A3A32274F012026C0A
:100A60008A088B098A828B83A3A3A3A3E4936026BD
:100A700090045F120BADE8FEE98007EE2404FEEF60
:100A80003400FF8E828F83E493F8740193F9EA684F
:100A90007002EB6970E5750C00804B9062147490E5
:100AA000F07410120B9E70027940750A01750B00EC
:100AB000E50E780A1204CF8E828F83A3A3A39355E9
:100AC0000A6004E9D2E0F9E9906215F0E50D906260
:100AD00013F074A7250EF58274033400F583E4F057
:100AE00090620EF0050C850882850983A3A3A3A359
:100AF000E493F8E50CC3984003020B997A0079055A
:100B000012059B8A0A8B0BAC0AAD0BEC4D60D5EC41
:100B10002402ED34000A0AFB8A828B83E493540F8B
:100B2000F50E90620EF079008C828D83A3A3A3A3AF
:100B3000E4932407F50AA3E4933400F50B740378D7
:100B40000A1204F4E50AF50D8A828B83E493A2E786
:100B50004003020A9B9062117448F07408120B9EC5
:100B600070027940750A01750B00E50E780A1204CF
:100B7000CF8E828F83A3A393550A6004E9D2E0F954
:100B8000E9906212F0E50D906210F0850E0A74A2F1
:100B9000250AF5827403020ADA7F0802038DF08CBD
:100BA000828D83A3A3A3E4935403640122E0F8A3FA
:100BB000E0F922C082C083120CA47010A3120CA70B
:100BC000700AA3E064017002A3E060079003A274BE
:100BD00004800C9003AF749CF0A37403120CF9F022
:100BE00002086074F512026C90039BE064026014CA
:100BF0009003B8120CA7700CA3120CA770069003F8
:100C0000B7E060099003A27404F0020C927A0079B4
:100C1000011205E39003B6E060637A00F912054122
:100C20008A088B09AE08AF09EE4F604990039B74A8
:100C300004F09003B6E090039CF0750A008E828F5A
:100C400083A3A3A3A3E493F8E50AC398503D850AC0
:100C500008120C97E4F07A00790412059B8A828BC3
:100C600083A3A3A3E493F8120C97E06870E812053D
:100C7000A7050A80C89003A27404F0800E90039C1C
:100C8000F090039B7403F0F91205657A0079021263
:100C900005E37F0302038D749D2508F582740334F8
:100CA00000F583229003B6E0F8A3E0F9E849227446
:100CB000F512026C90039BE0640470199003B4E099
:100CC00064817011120CA4700C9003BAE06401707E
:100CD00002A3E060079003A27404801A9003B8E0B6
:100CE000249DF508A3E03403F5099003AFE508F06F
:100CF000A3E509120CF9F08099F0A3E4F0A3041223
:100D00000D0322F0A3E4F09003A2042274F6120271
:100D10006C90039BE0640470109003B4E064017075
:100D2000089003BA120CA760089003A27404F08024
:100D3000529003B6E0FB9003B8E0FA90039CE0F910
:100D40001205478A088B09AE08AF09EE4F60DA90AA
:100D500003B8E0FA79031205E39003B6E0C0E0902F
:100D600003B8E0249DF8A3E03403F988828983D096
:100D7000E0F0EEFAEFFB1205A79003B8E0FA790471
:100D80001205E3020703C082C0837A0079011205CD
:100D9000418A828B83A3A3A3A3A3A3A3E493A2E684
:100DA0009003AE500474018001E4F09003ADE4F0D0
:100DB0007480659E70FA90620F7403F0E0A2E750B1
:100DC000FB53F4FED29043FE01758B00C2E843ACA6
:100DD00020439A02D083D082020427C082C083902D
:100DE000039B7402F0A3E4F09003A2F079031205D0
:100DF000659003BCE4F0A3F080DA74F512026C9005
:100E0000620EE0FEE4F0906211E0F50AA2E45019EF
:100E10007480F09003A27407F0121016600612108E
:100E20001012063F9003A2E4F0E50AA2E2500B90F4
:100E30006211E4F09003A2F0806B9003A2E06402E0
:100E4000704F906216E0FF9003AF1203D3EFF97A70
:100E5000207B6212056B74031204748F089003B236
:100E6000120FFF12102112101960047440800274D6
:100E700048906211F0E849701012101660061210C6
:100E80001012063F9003A2E4F0EE90620EF0021002
:100E9000BFE06406700612100A12063F9003A2E03B
:100EA0006003020F9CE50AA2E050DE7508B47509E4
:100EB00003750A0078081204BA79087A207B621256
:100EC000056B74031204749003BCE4F0A3F0900368
:100ED000B4E054E0601C24E07003020F6E24E06074
:100EE0006F24C0604524E07003020F7D24E0606F32
:100EF0008030A3E014601C24FE601324FE600A24EA
:100F0000FC601524FE60168019120625807C1205EF
:100F100095807712058F80721205B3806D1205BF20
:100F200080689003A27404F08068A3E0600E24FA45
:100F3000600F24FE601024FE601180E6120583809D
:100F4000491205A180441205AD803F1205B9803ACF
:100F50009003BC7401F0A37406F0120601802B907C
:100F600003BC74FBF0A37405F01205FB801C900316
:100F7000BC742BF0A37406F012062B800D9003BCFA
:100F80007419F0A37406F01206199003A2E0640429
:100F90007004746080027440906211F09003A2E0CB
:100FA0006401704A750A029003B2C3E09420A3E082
:100FB0009400500A9003B2E0FF750A0A80027F2075
:100FC0009003AF1203D3EFF97A207B62120571749C
:100FD000031204748F08121021120FFFE50A9062A9
:100FE00011F0EFC394204003020E89020E79E064F1
:100FF000056003020E8912100A12063F020E89C311
:10100000E09508F0A3E09400F0229003BCE0F8A380
:10101000E0F5838882229003BCE0F8A3E0F9E84978
:10102000229003AFE0F9A3E0FAA3E0FBE92508F979
:10103000EA3400FA9003AFE9F0A3EAF0A3EBF0A3DF
:101040002274F612026C7800880874A32508F582D1
:10105000740312106D40F17800880874A82508F513
:1010600082740312106D40F17F0202038D3400F58B
:1010700083E9F008E8C394052274F512026CEAFCD7
:10108000EBFDE9F8740B1205281210CF600D8C826D
:101090008D83E01204A41210C470F3802274F51240
:1010A000026CEAFCEBFDE9F8740B1205281210CF74
:1010B000600D12045A8C828D83F01210C470F37F7D
:1010C0000302038DE9240109EA3400FA18E822E05A
:1010D000F508A3E0F509A3E0A908AA09FBE822C0E6
:1010E00082C08374FF12048E802990038EE0F885FD
:1010F0001882851983E068700312057790038FE4E6
:10110000F0900391F0851882851983E0F890038EA2
:10111000E068F07901851882851983AA82AB831271
:1011200005F5E970030211C8851882851983E0C0AE
:10113000E0900391E0F890038FE0FAE82AF8E434B5
:101140000012136AD0E0F0900391E0601114602067
:1011500014603E14604014605614608E80A7851899
:1011600082851983E064FE709C90039174018094E1
:1011700090038EE4F0851882851983E0900390F047
:10118000C394809003914004E4021104740202119C
:10119000047403021104851882851983E090038D7D
:1011A000F0900390E0601990039174040211049090
:1011B000038FE004F0F8900390E0686003021105EB
:1011C00090039174050211047401120474D083D049
:1011D0008202042774F312026C74FC12048E9003D2
:1011E00011E0FAA3E0F9EA2400F8F508E93406F57D
:1011F00009750C017F007E0090038DE014600C14D3
:10120000604D14700302129D021312C3E894F1E9B9
:1012100094F940040F021312E5095401F9E84970EA
:1012200011880A85090B7409780A1204F4A90A12B4
:10123000060D750A108E0B780A1204BE7C137D030E
:10124000AA08AB091206137402120474021312C323
:10125000E894F1E50994FF50BB750A408E0B780ABB
:101260001204BE7C147D03EAF50AE5095401F50B6E
:101270007402780A1204CFAA0AAB0B740978081218
:1012800004F4A90812061F7402120474900312E0F9
:10129000A3F0900311E0A3F0750C4380757508046A
:1012A0008E0978081204BE7402120528AC82AD8340
:1012B0007A907B00790312061F7402120474851859
:1012C00082851983E0F47003A3E0F46043851882FB
:1012D000851983E0F8A3E0F97402120528E068702C
:1012E00003A3E06960277402120528E8F0A3E9F07F
:1012F00075080178081204BE7402120528AC82AD8C
:10130000837A247B0612061374021204740E800280
:101310007F07900310E0D2E7F0EFA3F0E50C900315
:101320000EF0744D650CF5087404250CFB7A0380EF
:1013300007121367E062080AEAC39BA2D265D033A2
:10134000EAF840ED121367E508F074012AF97A0D06
:101350007B031205DDEEA2E0500375C90874041288
:1013600004747F0502038D3395E0F9740D28F5822E
:10137000740339F58322D083D082020427C082C04F
:1013800083E9FCEAFD7A007B00800790039AE01273
:1013900013D0900399E0F8A3E0F9900459E0687045
:1013A00003A3E069601C1213C46C700D900399E0F4
:1013B000FAA3E0FB1213D080091213C46D70CCEDB8
:1013C00060C980B290039AE0F5838882A3E49322F7
:1013D000F5838882E493F8900399E028F8A3E03439
:1013E00000F9900399E8F0A3E9F022C082C08312CB
:1013F00013FC7A00790112059B021376900457E0E2
:10140000F8A3E0F9900399E8F0A3E9F02274F6124A
:10141000026CE9FEEAFF1213FC7A00790212059BC6
:10142000EA4B601CEE60108A828B83A3A3A3A3A364
:10143000E4936E70E48009EFF874FF281F0470D9FC
:101440007F0202038D74F412026CEAFF8B087A00AB
:101450001205417A02790412059BEA4B60188A82D0
:101460008B83A3A3E4936F70EA8A828B83A3A3A3E5
:10147000E493650870DD7F0402038D74F612026C3C
:1014800074F012048EE97A007B00600C1460101472
:1014900060141460180215867AD17B030215867ACF
:1014A000D57B030215867AF97B0302158690041D0D
:1014B000E060030215827408120528AC82AD8375C2
:1014C00083037582C97408120400750808F5097849
:1014D000081204BE7402120528AC82AD837AE87B40
:1014E00007797F12061F740212047478081204BE72
:1014F000740A120528AC82AD837402120528AA82F0
:10150000AB831205C574021204748B09EA45097095
:101510001D75090078081204BE7C0C7D78740212D7
:101520000528AA82AB831205CB74021204747C28AE
:101530007D008D08851882851983E5822508F5824E
:10154000E5833400F583E0FF8C08741D2508F874EA
:10155000043400F9EF12158E88828983F0EFC412EB
:10156000158EC0E0E824FEF582E934FFF583D0E073
:10157000F00D74FC2CFCEDC3940840B690041D746F
:101580002AF07A1D7B047410120474021440540F64
:10159000FA74472AF58274043400F583E022C0828D
:1015A000C083800312057DA2E840F99003BEE0F8F5
:1015B000A3E0E85404600D9003BEE054FBF0A3E008
:1015C000F01205599003BEE0F8A3E0E85410600D56
:1015D0009003BEE054EFF0A3E0F012055F9003BE6D
:1015E000E0F8A3E0E8A2E050149003BEE054FEF05F
:1015F000A3E0F09003BEE054FDF0A3E0F090620E93
:10160000E0FA7404F0906214E0A2E05042E5A8F819
:10161000C2AF906216E0F9A3E0E9FBE8A2E792AF5F
:10162000801F906228E0C0E090030AE0F87463280D
:10163000F58274053400F583D0E0F090030AE004ED
:10164000F0EBFC74FF2C1B0470D8906214E4F0EAF9
:1016500090620EF0E0FD7404F0906211E0A2E040B0
:101660003190030CE0F890030BE06860257A40901D
:10167000030B121716E0906228F090030BE004F0C1
:101680000890030CE06860041AEA70E39062117439
:1016900001F0ED90620EF0D083D08202042774F73F
:1016A00012026CE9FE7900801F900309E0FC74636C
:1016B0002CF58274053400F583E08A828B83F090E8
:1016C0000309E00412170B09900309E0F890030ADC
:1016D000E0686005E9C39E40D07F0102038DC082AF
:1016E000C083E9FC80188A828B83E0C0E090030C01
:1016F000121716D0E012170B90030CE004F0ECF870
:1017000074FF281C0470DF7901808CF08A828B833F
:10171000A3AA82AB8322E0F8746328F582740434B0
:1017200000F5832274F612026C74FF12048E7508A1
:101730000175090078081204BE7402120528AC82F3
:10174000AD837AFF7B07790212061F7402120474BC
:10175000851882851983E05407F87401B800028067
:1017600004C333D8FCF8E0131313541F540360056B
:101770001460068008E5808006E5908002E5A0F907
:10178000E0A2E7E958500E600E790174011204746A
:101790007F0202038D60F2790080F074F712026C10
:1017A0007409120528E0F8A3E08015A3AA82AB8390
:1017B0008C828D83A3AC82AD83E824FF18E934FFCB
:1017C000F9E84960238A828B83E0FE8C828D83E076
:1017D0006E8A828B8360D4E0F88C828D83E0FAE895
:1017E000C39AFA95E0FB80047A007B007F01020334
:1017F0008DFFFFFFFFFFFFFFFFFFFFFFFFFFFF0A60
:1018000002226F021AB2FFFFFFFFFFFFFFFFFFFF81
:10181000FFFFFFFFFFFFFFFFFFFFFFFFFFFFFFFFD8
:10182000FFFFFFFFFFFFFFFFFFFFFF022332FFFF6E
:10183000FFFFFF021AE5FFFFFFFFFFFFFFFFFFFFB4
:10184000FFFFFFFFFFFFFFFFFFFFFFFFFFFFFFFFA8
:10185000FFFFFF02193EFFFFFFFFFFFFFFFFFFFF3C
:10186000FFFFFFFFFFFFFFFFFFFFFFFFFFFFFFFF88
:10187000FFFFFFFFFFFFFFFFFFFFFFFFFFFFFFFF78
:10188000FFFFFF0219A8FFFFFFFFFFFFFFFFFFFFA2
:1018900001000100341234120300030003000300AE
:1018A0000300030003000300030005000A00140006
:1018B00028004F009E0000003524352435243524AF
:1018C0009923932335247F2E00000000432F00002E
:1018D00000000C0000000C00323202CE010201FFB9
:1018E000FFFFFFFFFFFFFF9326CF260B274D27F9B2
:1018F000261D270D28FF0360EA3075102019F8E730
:101900002C041E0A04FF000000035F005F0030008B
:10191000580000000000000000000000000000006F
:1019200000000000000000000000000000000000B7
:101930000000821ED71ED71ED71ED71EDF1EC0E096
:1019400074F1121E23A2AFE433FED2AFE5A7FFE588
:10195000A1F5085FF5097410550960061224C575D4
:10196000A1EF74085509600812250D75A1F7802BA9
:10197000EFA2E0C0D0E508A2E092F0122249158162
:1019800082F05017906198E0F890026EE0C398A240
:10199000D265D0335002E8F075A1FE751A00EEA2B0
:1019A000E092AF7F02021EDFC0E074F1121E23A29C
:1019B000AFE433FED2AF9061A4E0F8759B00E591EF
:1019C00058540860097591F712260F021A6BE591B9
:1019D00058541060707591EFE0C2E4F09061E4E05B
:1019E00070061225DF021A6BE064017053900265E5
:1019F0007404F01225AF900269E004F0F89001F24F
:101A0000E0C398500779E11225EB805F9001FEE07A
:101A1000FA900267E02401F8E43400F98A08E895B6
:101A200008E99400C365D0335004E0048001EAFF64
:101A3000EFF01225CD9002657483F01225D9802B2A
:101A40001225E58026E8A2E0C0D0E591A2E092F060
:101A5000122249158182F05012E0C2E0F090025249
:101A6000E4F0900250E070031225859061A3E0F845
:101A7000E5E95854046038900261E07027900260F4
:101A80007401F0900253E0F8A3E0F58388821223FA
:101A90003D900260E4F0900261E0600812255B90E6
:101AA0000261E4F075E9FB906193E0A2E640C802B0
:101AB000199BC0E074F2121E23A2AFE433FED2AF32
:101AC0009061A5E0F8E5BF585404600C75BFFB9029
:101AD0000262E004F0122555751A00EEA2E092AF02
:101AE0007F01021EDFC0E074ED121E23A2AFE433BB
:101AF000FCD2AF7480659E70FA90620F7403F0E0C0
:101B0000A2E750FB906206E0F50A7406550A7006DB
:101B1000E58BA2E55045E50AA2E25033901B25E093
:101B2000F8A3E0E890620B121BBB74047808122241
:101B3000C2E508906207121BBB740978081222C222
:101B4000E508543E906209F0906201E0D2E0F0E5D1
:101B50000AD2E1F50A901B27E48017E50AA2E050BB
:101B60001290620FE0C2E1F0E0A2E740FB901B2779
:101B70007401F0906202E0F50C906204E0F50875E3
:101B80000D007404780C12225CE50A450CFA750904
:101B9000007409780812225CEAF8E50D4509F9900D
:101BA0001B23E048F0A3E049F0758B00C2E8751AEA
:101BB00000ECA2E092AF7F06021EDFF0901B25E052
:101BC000F508A3E0F50922C3E498F8E499F9121C9A
:101BD000088026C3E49AFAE49BFBE920E7E9121C9B
:101BE00008E498F8E499F922C3E498F8E499F91222
:101BF0001C08E498F8E499F9C3E49AFAE49BFB2200
:101C0000EB20E7CFE920E7E0B90010BB0008E88A45
:101C1000F084F8AAF022E4FBC8FA22EB70227B10D1
:101C2000C833C8C933C9335007C39AC3DBF280062F
:101C30009A50012ADBEAC833F4C8C933F4C9FA223E
:101C400075F008E4C833C8C933C933C99AC99B5071
:101C500004C92AC93BD5F0ECFBC833F4C8E4C9FA7F
:101C600022080808EAC0E0EBC0E086F0E7A4FA1812
:101C70000986F0E7A42AFA180986F0E7A42AFA18D8
:101C80000986F0E7A42AFA1986F0E7A4FBE5F02A12
:101C9000FA190886F0E7A42BFBE5F03AFA19088652
:101CA000F0E7A42BFBE5F03AFA18180986F0E7A450
:101CB000C5F02BFBE43AFA1908E7C5F0C6A426F6EE
:101CC000E5F03BFBE43AFA1886F0E7A4F6E5F00805
:101CD00026F6E43B08F6E43A08F6D0E0FBD0E0FA5A
:101CE00022E4CFC0E0E4CEC0E0E4CDC0E0E4CCC06C
:101CF000E075F020C3E633F608E633F608E633F67F
:101D000008E633F6181818EC33FCED33FDEE33FE1D
:101D1000EF33FFC3EC9709ED9709EE9709EF971999
:101D20001919400FFFEC97FC09ED97FD09EE97FE9E
:101D3000191906D5F0BEECF709EDF709EEF709EF32
:101D4000F7191919D0E0FCD0E0FDD0E0FED0E0FF9B
:101D5000222518C582C0E0E51934FFC583C0E0E53F
:101D600018C3958224F810AF0885831985821880DE
:101D700008858319858218D2AFCEF0A3E520F0A3A1
:101D80007808E608F0A3DEFAEFF0A3E58124FAF87C
:101D9000E608F0A3E608F0A3E608F0A30808E608C2
:101DA000F0A3E608F0A315811581D0E0FED0E0F89D
:101DB000158115811581E8C0E0EEC0E022122314E0
:101DC000B90003021E0DE4791A7801B800028004FC
:101DD000F709D8FCE490018078E3791A8002F0A337
:101DE000D8FCD9FA901B62AA82AB8390189878A786
:101DF00079018015E493A3AC82AD838A828B83F052
:101E0000A3AA82AB838C828D83D8E9D9E775828DB2
:101E100075837F740012208B75823875832374005C
:101E200012208BC0D02518C582C0E0E51934FFC54B
:101E300083C0E0E518C3958224F310AF08858319A9
:101E40008582188008858319858218D2AFC8F0A3CF
:101E5000E9F0A3EAF0A3EBF0A37908E709F0A3D82F
:101E6000FAECF0A3EDF0A3EEF0A3EFF0A3D0E0F0D6
:101E7000A3D0E0F0A3D0E0F0A3E520F0A3E5F0F0DC
:101E8000A32212010002020000205104B116090031
:101E90000102030109024300020100801909040044
:101EA00000010202010005240010010424020205C1
:101EB00024060001052401000107058203400040BB
:101EC00009040100020A0000000705840240000026
:101ED000070504024000009D1E0000C01E00008592
:101EE0001983851882E0C0E0A3E0F9A3E0FAA3E03B
:101EF000FBA37808E0F608A3DFFAE0FCA3E0FDA36B
:101F0000E0FEA3E0FFA3E0C0E0A3E0C0E0A3E0F5B3
:101F1000D0A3E0F520A3E0A3F5F010AF0885831966
:101F20008582188008858319858218D2AFD082D027
:101F300083D0E0F8D0E032851983851882E0A3FED3
:101F4000E0A3F5207808E0A3F608DFFAE0A3FFE0BD
:101F5000A3C0E0E0A3C0E0E0A3C0E0E0A3C0E0E0F5
:101F6000A3C0E010AF088582188583198008858298
:101F700018858319D2AFD083D082022091D083D02C
:101F800082C5F0E493A3C5F0C395F0F5F0E493A304
:101F9000C395F04005E5F0048001E475F002A42546
:101FA00082F582E5F03583F583E493A3C0E0E49302
:101FB000C0E0227403800474028000CCC0E0EDC055
:101FC000E0E518C39CCCAD1950011D10AF068C186C
:101FD0008D1980068C188D19D2AF12202CD0E0FDFF
:101FE000D0E0FC22C008C3E096F50808A3E09642C2
:101FF0000808A3E096420808A3E0964208A2D2652A
:10200000D033E5087001D3D00822CAC0E0E493A31E
:10201000C582CCC582C583CDC583F0A3C582CCC59E
:1020200082C583CDC583DAE5D0E0CA22CAC0E0E02C
:10203000A3C582CCC582C583CDC583F0A3C582CCA0
:10204000C582C583CDC583DAE6D0E0CA227009080F
:102050000808226016181818C6C333C608C633C647
:1020600008C633C608C633C6D5E0EA22C008C3E0B6
:1020700096F50808A3E096420808A3E096420808EF
:10208000A3E09645087001D3D00822C09FF59FE4D5
:1020900073D09F22D083D082C09FE493C0E07401AC
:1020A00093C0E0740293F59F222518F58210AF08C3
:1020B000F518400215198008F51840021519D2AF1D
:1020C000851983227404800A7403800674028002D6
:1020D0007401C0E0F4041220A9D0E01222EF22BB68
:1020E0000102E722C082C08389828A83BB0003E0A9
:1020F0008002E493D083D08222C0D0251810AF088C
:10210000F518500205198008F51850020519D2AFCC
:10211000D0D0226016080808C6C313C618C613C656
:1021200018C613C618C613C6D5E0EA22C3E0C69681
:10213000F608A3E0C696F608A3E0C696F608A3E064
:10214000C696F622BB000EC082C0838A838982F0C5
:10215000D083D08222BB0101F722251810AF08F5E9
:1021600018400215198008F51840021519D2AF223F
:10217000E066701008A3E066700A08A3E0667004C9
:1021800008A3E06622C3E09608A3E09608A3E096C1
:1021900008A3E096A2D265D03322E7667010080942
:1021A000E766700A0809E76670040809E76622C353
:1021B000E096F008A3E096F008A3E096F008A3E00C
:1021C00096F022C3E697F60809E697F60809E6971F
:1021D000F60809E697F622E627F60809E637F60834
:1021E00009E637F60809E637F622E026F008A3E00C
:1021F00036F008A3E036F008A3E036F022E046F01F
:1022000008A3E046F008A3E046F008A3E046F02269
:10221000E056F008A3E056F008A3E056F008A3E06B
:1022200056F022E056F608A3E056F608A3E056F66C
:1022300008A3E056F622E026F608A3E036F608A347
:10224000E036F608A3E036F622C0E0E8C0E0E5811B
:1022500024FCF8E6A2E7D0E0F8D0E0227004226087
:102260000D18C6C333C608C633C6D5E0F4182275A8
:10227000D00075813F751880751901759F00021D8A
:10228000BDE4C396F608E496F608E496F608E496EC
:10229000F622C3E09608A3E09608A3E09608A3E020
:1022A0009622C6F4C608C6F4C608C6F4C608C6F424
:1022B000C622C3E7960809E7960809E7960809E7E2
:1022C0009622600C08C6C313C618C613C6D5E0F420
:1022D00022E6F008A3E6F008A3E6F008A3E6F02261
:1022E000E0F608A3E0F608A3E0F608A3E0F622CAA9
:1022F000C0E0E6F0A308DAFAD0E0FA22EAF0A3EBB5
:10230000F0A3ECF0A3EDF022E0FAA3E0FBA3E0FCE5
:10231000A3E0FD22E5C754F84401F5C77901222561
:1023200018F582E43519F58322C2AF75D69F0200F5
:102330000022C2AD751A003200000080FBE4731267
:102340002094B18101122094F18101122094BE8267
:1023500001122094DD83011220949D8501122094A6
:102360001F8601122094D186011220944587011204
:1023700020946F87011220949C8701122094D587A6
:1023800001122094DE8701122094358801122094D6
:10239000818801122094C08901122094D3890112EE
:1023A0002094E489011220947C8A01122094E08B0D
:1023B00001122094D98C011220944D8D0112209489
:1023C000578D01122094218E01122094328E011219
:1023D0002094658E01122094B58E01122094DD8E1A
:1023E00001122094FB8E01122094948F01122094EC
:1023F000B18F01122094B69001122094CB9001125B
:102400002094719101122094149201122094299227
:10241000011220944E93011220946A930112209489
:10242000BD9301122094D793011220940F960112AC
:1024300020947B9601122094719801122094749834
:1024400001122094809801122094B39801122094D4
:10245000929901122094109B011220942E9B01123C
:102460002094929B01122094F09C01122094F39CE2
:1024700001122094669D011220947B9D01122094EC
:102480008B9D01122094D09D01122094009E011278
:102490002094039E011220946B9E011220946D9F44
:1024A000011220944AA001122094DBA00112209472
:1024B000F2A1011220942BA2011220945AA201121F
:1024C00020949BA20112209478A30112209404A4CA
:1024D0000112209475A401122094EFA401122094FB
:1024E00029A50112209462A50112209498A5011239
:1024F00020941CA60112209431A60112209456A605
:1025000001122094C7A601122094EEA60112209475
:1025100086A7011220945DA801122094D1A801126F
:102520002094DEA801122094FDA80112209497A9FE
:1025300001122094F8A90112209418AA01122094E3
:102540005DAA011220946CAA011220947CAA0112A7
:10255000209495AA01122094D3AA01122094EEAAE5
:10256000011220945DAB01122094FBAE0112209465
:10257000FEAF0112209432B00112209483B00112F8
:1025800020946EB10112209496B101122094BCB136
:1025900001122094EFB10112209442B20112209452
:1025A00060B20112209481B201122094A0B20112F3
:1025B0002094C1B201122094EFB20112209409B309
:1025C000011220943AB301122094DFB30112209437
:1025D00012B50112209484B501122094E5B50112C0
:1025E000209418B60112209452B60112209480B69D
:1025F00001122094A5B601122094CBB601122094AA
:10260000F9B60112209444B701122094E4B70112E4
:102610002094F8B70112209456B801122094C8B93A
:1026200001122094DBB901122094F8B90112209410
:102630000EBA0112209422BA01122094A8BA0112F3
:10264000209418BB01122094FCBB011220942CBCD6
:102650000112209443BC011220942CBD011220943D
:1026600040BD0112209475BD011220949EBD01123F
:102670002094C6BD011220945BBE01122094FEBEC0
:102680000112209417BF0112209441BF011220941F
:10269000CEBF011220945AC201122094B9C2011275
:1026A0002094E0C20112209433C3011220943DC350
:1026B000011220945AC30112209457C4011220948D
:1026C0006EC40112209498C401122094FBC401121C
:1026D000209432C50112209477C5011220942DC791
:1026E00001122094CDC7011220940AC8011220942F
:1026F0005AC801122094AAC8011220948AC9011252
:102700002094AEC9011220948ECA01122094E9CB04
:102710000112209427CC0112209493CE0112209410
:102720003AD001122094A4D001122094C2D20112F6
:10273000209488D4011220940FD50112209474D7CC
:102740000112209499D70112209417D801122094D5
:1027500060D9011220949AD901122094CED9011285
:10276000209492DA0112209402DD01122094CEDD31
:102770000112209414DE0112209447DE01122094ED
:10278000FDDF011220942EE10112209402E20112D9
:1027900020942AE20112209490E2011220947BE31B
:1027A0000112209447E40112209496E4011220942F
:1027B000C6E4011220949AE501122094B8E50112B2
:1027C0002094D6E501122094F4E501122094D9E674
:1027D0000112209496E701122094DBE70112209465
:1027E000FFE8011220945AE901122094E2E9011253
:1027F000209485ED01122094EEEE011220944BF00E
:102800000112209495F001122094B3F0011220944B
:10281000CBF0011220945DF10112209425F20112F7
:102820002094BBF201122094A1F30112209440F4F1
:102830000112209426F501122094B7F5011220947C
:1028400016F60112209437F70112209476F7011240
:102850002094569802122094B59802122094F3986E
:1028600002122094349902122094A275001220942E
:10287000EA75001220945876001220947B7600129C
:102880002094C87600122094F1760012209451779B
:1028900000122094E77700122094347800122094DC
:1028A0008E78001220941679001220945B79001221
:1028B00020949A7900122094CF7900122094E17923
:1028C00000122094F37900122094127A00122094BE
:1028D000409602122094439702122094FF8F021216
:1028E0002094639002122094879002122094809189
:1028F000021220945699021220946C99021220948C
:10290000769902122094C099021220943A870212FA
:1029100020944D8702122094E88702122094248884
:10292000021220943B88021220946588021220949F
:102930009D88021220941A8A021220944F8A021251
:1029400020945C8A021220949D8A02122094AA8B01
:1029500002122094E88B021220942D8C02122094F3
:10296000428C02122094AC8C02122094129C02120F
:102970002094239C02122094D393021220940B944F
:10298000021220942C94021220946E94021220942D
:10299000D49402122094DE9402122094EE94021237
:1029A0002094F4FF011220947E5B00122094AC5E10
:1029B000001220945160001220944F620012209463
:1029C000EF7F00122094E99902122094F4990212E8
:1029D00020940C9A021220941A9A02122094239A9C
:1029E000021220946B9A02122094289502122094CD
:1029F000AF950212209413960212209400800212C6
:102A000020940E8002122094888002122094548117
:102A100002122094008302122094658302122094F3
:102A2000C88302122094EE91021220949F93021206
:102A30002094B031001220945A8D02122094138EEB
:102A4000021220945A8E02122094A68E0212209412
:102A5000708F02122094948F02122094BA8F021267
:102A60002094CD8F02122094E28F02122094E78FDF
:102A700002122094EA8F02122094B69B0212209434
:102A8000D49B021220944C7F001220940E6A0012F4
:102A900020948E6A00122094D46B001220945C6CF7
:102AA00000122094876C00122094C46C00122094B1
:102AB000986D00122094C06D00122094D56F001202
:102AC0002094FB6F00122094055300122094D153E0
:102AD000001220941254001220944C54001220949E
:102AE000B454001220940855001220946655001228
:102AF0002094FF55001220940757001220949458F8
:102B0000001220943D5900122094A45900122094E0
:102B1000B45900122094A05A00122094E95A0012CD
:102B20002094E87A00122094ED7B00122094B97D65
:102B300000122094E14200122094A8430012209435
:102B4000B94400122094FC45001220945146001212
:102B50002094424700122094C747001220946E48E8
:102B6000001220941549001220943A490012209432
:102B7000A24900122094B34900122094C9490012BE
:102B80002094814A00122094A54A00122094B24A4F
:102B900000122094BE4A00122094CA4A00122094C7
:102BA000E84C00122094F64C00122094B74E00120C
:102BB00020945F4F001220944250001220943B5109
:102BC00000122094495200122094B3520012209413
:102BD0005497021220945A970212209427980212B6
:102BE000209444980212209441F80112209452F843
:102BF0000112209454F90112209418FB0112209420
:102C000037FB0112209457FB0112209473FB011231
:102C1000209492FB01122094C8FB011220940BFC1B
:102C20000112209427FC01122094CDFC0112209463
:102C3000E8FC0112209410FD011220942BFD0112DA
:102C4000209446FD01122094F69A02122094779A5D
:102C500002122094A79A02122094DC9A0212209465
:102C6000DE9A02122094E09A02122094F19A021243
:102C70002094F39A0212209479FD01122094EBFD26
:102C8000011220940DFE0112209445FE01122094A1
:102C90007BFE01122094DC83021220943184021204
:102CA00020945084021220949C8602122094D48690
:102CB00002122094F886021220943D9C0212209465
:102CC000016300122094DA6300122094C56400129C
:102CD0002094D66400122094E76400122094316599
:102CE00000122094D16600122094366800122094BD
:102CF00066680012209434690012209494690012CE
:102D00002094B73100122094C231001220947932FD
:102D100000122094AB3200122094B732001220949B
:102D2000E03200122094823300122094CC3400123E
:102D30002094B33600122094AA3700122094D5377D
:102D4000001220947838001220948C3900122094BC
:102D5000C33900122094483B001220945E3B0012BD
:102D600020947D3B00122094CE3F00122094B54069
:102D7000001220941A4100122094854100122094E0
:102D8000874200122094B742001220941C70001257
:102D9000209426700012209404710012209438713F
:102DA00000122094E7710012209484720012209483
:102DB000F872001220940273001220940F73001214
:102DC00020944F7300122094C67300122094D8737D
:102DD000001220940F75001220941A75001220948E
:102DE0009EFF01122094709B02122094E59B02002A
:102DF0000136360101000102010001030100010456
:102E000001060605020000070100340801000F0951
:102E10000401010D0100FF0E080000170200001957
:102E20000100FF1A0100011B0100FE1C0100081D2A
:102E30000200001F01000120010001210200002307
:102E400001000F24020000260100012701000828CC
:102E50000200FF2A0100072B0102402C0100002D77
:102E60000100012E0100012F0100FF30010B1C3178
:102E70000800003A0100083B01000F2F0100000389
:102E80000071003001600011007000310220035019
:102E900004800010006100000014006300730072E1
:102EA0000062004300000013000600000000000460
:102EB00000120000000000000000000400040037C1
:102EC0000037003C024400000000000000000065E4
:102ED00000000035008100000005000000830000B4
:102EE000000304710402046004110470040204026B
:102EF0000401040204100461040004140463047354
:102F00000472046204430400041304060400040071
:102F100004040412040004000400040004510464C6
:102F20000000040004000444040004000400040041
:102F3000046504000435048104640005040004836E
:102F400004000401037103010301030103010301F0
:102F50000322030203010310030003000300030024
:102F600003000300030003420300032403060300DD
:102F7000030003040312032503230325032303048F
:102F800003040300030003000344030003000323BE
:102F900003000365032100350381030003050300DB
:102FA00003000300033E030202400301004103014A
:102FB0000342030204440302055D030406460301C1
:102FC000070000010000002C00470301084803012E
:102FD000094903010A4A03010B4B03020C4D03018B
:102FE0000D4E030F0E36000100060000000F00001A
:102FF000000000000000000000000003FFFF0000D0
:103000000403FFFF0000FFFF0FF4010005C40403E9
:1030100020000100000B0000000000000000030180
:103020000F6103010F62030210640307116B0301B8
:1030300021000008006C0302226E030223700301CA
:103040000071030100FFFF0FFFC800000000010432
:103050000303640003000000000000000000000003
:10306000000000000100000003000300040008004D
:1030700010001F003E007B00F600EC01D703AF07F5
:103080005D0FB91E713D000007ECFDFDFDECDCDCC1
:10309000CCBCACAC9C9C8C7C7C6C6C5C5C5C4C4C10
:1030A0003C3C2C2C1C1C0BF1F5F5E5D5D5C5B5A584
:1030B000A595958575756565555545454535252510
:1030C00015150503EAF5E5D5D5C5B5A5959585850D
:1030D000757565655555454535352525151505899C
:1030E0002489248924892489248924892489248978
:1030F00024892489248924E123DB2335243B2441AA
:1031000024BD234724B723C323140AE5D5C5B5A599
:10311000A595858575659524AD24B3249B24A724A6
:10312000A12489248924752389246F23892430309C
:1031300017181921301B1D1F303030161819202385
:103140001A1C1E3000034948424D18172505020C71
:103150000E020B040B0A0708000F00383C3E363BFA
:103160003B352B432C0001191618161615230300A6
:10317000892489248924892489246524892489240B
:103180003524892402040201010101090200051508
:103190000D09100804883088308830C3300931A602
:1031A0003000FA06F6005723692300BE040AFFFF29
:1031B000851A8700022091C082C083E9901B4E02CD
:1031C00039BBC082C0837C437D1B12386F60239063
:1031D0001B457411F0A37401F0A3E4F0A304F0A361
:1031E0007451F0A37404F0A374C2F0A37416F0A396
:1031F000E4F0901B43E4F0A304F07C437D1B7A0BC6
:103200007981122B0D7C5C7D1B7A047980123873D6
:1032100060257C027D0079007A5E7B1B1228737C1E
:10322000027D0079007A5C7B1B1228737C5C7D1B1D
:103230007A047980122B0D7C357D1B7A0A798212F3
:10324000387360187C0A7D0079FF7A357B1B122861
:10325000737C357D1B7A0A7982122B0D901B3FE41B
:10326000F0901B40F0901B41F0901B5874FFF090C1
:103270001B59F0901B5A0239BB74F7121D51EAFE1C
:10328000A2E0500B901B2EE064037003122D23EE7E
:1032900054106010901B2EE064017008901B59E0E0
:1032A000F9122D7D7A007B000237D0C082C0839056
:1032B0001B2E74030239BBC082C083E9F8EAF98C83
:1032C000828D83E0544F14600824FE600424C07093
:1032D0000C901B5BE0D2E2F0E8901B58F00239BC86
:1032E00074F2121D51890B740E12231FE0FE740F2D
:1032F00012231FE0F8A3E0F9EDC313F50C750A01E2
:103300007407550BFF7401BF00028004C333DFFC58
:10331000C0E0E50B131313541FF508745E25081263
:103320003B02D0E0FFE05F7008750A00A90A02398D
:10333000701E88828983A3A882A9838026E50B90CA
:103340001B2FF0A3EAF0A3EBF0ECA3F0EDA3F0EF5A
:10335000A3F0850D08E82508F8E93400F9E50DCE5D
:10336000C39EFEEE60C688828983E004F50DA3A3A8
:10337000E0FF74026F70C6E50CA2E040C0750A0061
:1033800080D074F1121D5174D912215A7401122384
:103390001F7402F00412231F7401F0901B34E0FF2D
:1033A000740412231FEFF0C3940B504574016F7027
:1033B000047903800A74026F60030234C2790874CE
:1033C0000229C0E0740212231FD0E0F07800E8C3A5
:1033D00099400302347C8808740112231FE582257A
:1033E00008F582E583123B06A3A3A3A3E4F00880BB
:1033F000DD901B2FE0F9122D53E9FE74FF6E700370
:103400000234C2851882851983AC82AD83EFFA122B
:103410002D6BE9640160030234C2741512231FACE2
:1034200082AD837A12851882851983EE333354FC7A
:10343000F8E0282494F912387360030234C2741639
:1034400012231FE0F50874022508C0E0740212235D
:103450001FD0E0F0741712231FA982AA83890C8A57
:103460000D750E00780C1220C8AC087D007408128F
:10347000231FAA82AB831240AF1220F974011223DA
:103480001F85820885830978081220CC74041223D2
:103490001FE02402F50878081220D0901B33E0F5D5
:1034A0000878081220D0901B32E0FB901B30E0FC23
:1034B000A3E0FD7A02901B2FE0F9122C2174041274
:1034C00020F974271220F97F07021F3774EE121DAE
:1034D0005174FE12215A89088A0A8B0B8C0D8D10AB
:1034E000741412231FE0F50C741512231FE0F50E5F
:1034F000A3E0F50F7F007E00850C82AA827B008509
:103500000E82F583E0544F24FE70030235AB147035
:10351000030235DE24C3700302362A147003023519
:10352000FA14700302362A14600F14700302362A4C
:103530001470030235EB0235C7EAC39402404E749F
:10354000FF250CF50975F003A4240CFAE5F034000E
:10355000FB1228E58A0A8B0BAE0AAF0BEE4F602DEB
:103560008E828F837444F0EEFCEFFD850E82850F12
:1035700083A3AA82AB83A909122D77E9FAEEFCEFA7
:10358000FDA908122D71EEFAEFFB1228EB7E0190D7
:103590001B2EE0640160030236A7901B59E065080A
:1035A00060030236A712379D0236A7780E1220CC90
:1035B000EAF51178111220D0AA0AAB0B122D1D7456
:1035C000031220F9E970057E010236887CDC7D0556
:1035D0007A017B00901B4EE0F91229218051AC0E3C
:1035E000AD0F122D65E9F5090F80DCAC0EAD0F12A1
:1035F0002D5FE9F50912379D80EE122D4DE9F8880F
:103600000970187C647D007A007B10901AAFE0F995
:10361000122921901B2E7403F0800E901B2EE06463
:10362000017005A908122D7D0E0FEEA2E040599001
:103630001B2EE064017030901B59E06508702878FB
:103640000E1220CC780C1220D0E510F50C780C125C
:1036500020D0AB0DAC0AAD0B7A02A908122C217454
:10366000041220F90235C774075508F87401B80030
:10367000028004C333D8FCC0E0E508123B0BD0E065
:10368000F8E05870030235C7EFA2E0501A8518829F
:103690008519837440F0740112231FE509124179E2
:1036A0007A02A908122D71EEF974021220F97F0A2C
:1036B000021F3774F7121D5174FE12215AE9FE855C
:1036C0001882851983AA82AB83122771E9600302ED
:1036D0003796851882851983E0242B123B36A2E2A7
:1036E0004003023796901B35E0F4600BE06E6007F4
:1036F000901B4274FF8004901B42E4F0901B59E041
:10370000F46004E06E7020901B42E0F46019123BFC
:1037100025701B7A1E7B001228E5901B2CEAF0A373
:10372000EBF0123B257007EEF9122D7D8068901B9F
:103730002CE0241D123F8E7401F0901B2CE0241C01
:10374000123F8EE4F074075EF87401B80002800442
:10375000C333D8FCFAEE131313541FF8745C28F526
:1037600082741B123B06E04AF074FF6AFA745E280A
:10377000123B02E05A123B3B7C027D0079FF7A2A21
:103780007B1B122873122DC5901B2E7401F0EE9036
:103790001B59F012379D74021220F980337A2C7B6A
:1037A00001901B4EE0F9122DBF2274F7121D51E952
:1037B000FF901B2EE0640270047E0180027E009068
:1037C0001B59E06F7003122D47EFF9122D59EEF9D6
:1037D0007F01021F3774F1121D5189088A0AECFE1D
:1037E000EDFF7509007481650870107A1E901B3F0B
:1037F000E02483F9123873F509806F7484650870CA
:10380000207A55901B40E0333354FCF8901B3FE086
:10381000C454F02875831B758241F8E02824848005
:10382000D2748665087012750C35750D1B750E0007
:10383000780C1220C87C0A802B745F2508C3945032
:10384000500A122D83E9F874FF6870057509F48039
:1038500019E8123975F50C741B12427D1220C885C7
:103860000A0CAC0C1240A91220F9A9090234C77A3B
:103870000B7981122B13E92274F2121D51890D8AE2
:103880000CECFEEDFF750B00122DD7E97006750BE1
:10389000E802396E7480650D70188E828F83E0F9AE
:1038A000122D53E9F874FF6860E4E8901B3FF002C2
:1038B000396E7481650D7012EEFCEFFD7A1E901B5F
:1038C0003F123B1DE9F50B02396E8E088F09750A10
:1038D000007486650D702678081220C87C0A7D0069
:1038E0007A357B1B1240AF1220F97C357D1B7A0A9A
:1038F0007982122B0DE96076750B0A8071748265EE
:103900000D70118E828F83E0F8C394045080E8908C
:103910001B40809A7483650D70158E828F83E0F84A
:10392000C39404400302388EE8901B41F0803F743A
:103930005F250DC39450500AA90D122D8374FF69A1
:103940007005750BF4802778081220C8850C08AC28
:10395000087D00E9123975FA741B123F801220F9B4
:103960007C437D1B7A0B7981122B0DE9708AA90BA0
:103970007F06021F3775F003A4F8A9F074D928F563
:1039800082748039F583E0F874432822C082C083B2
:10399000123B256012901B2CE0FAA3E0FB1228EBEF
:1039A000901B2CE4F0A3F0901B5974FFF07A019067
:1039B0001B4EE0F9122DB9901B2EE4F0D083D0827B
:1039C00002209174F4121D51E9FE901B2EE0640157
:1039D000700C901B59E06E7005123B25700F7A0039
:1039E000901B4EE0F9122DB97903023AFD901B2C81
:1039F000E0240D123B3660307F0080010F88828901
:103A000083E0FAEFC39A5020EFFA901B2CE02AFAD9
:103A1000A3E03400FBEA240EF582EB123B06E070D3
:103A2000DB901B2AE0D2E7F0123B30FF80478F0883
:103A3000E508240AFCE43400FD750801750900EC72
:103A4000F8EDF97A087B00121C00EA780812225C73
:103A5000E508F4F508ECF8EDF97A087B00121C0093
:103A6000880A890B742A250AF582741B350BF583A5
:103A7000E05508F00FEFC3940440B37F0074075F74
:103A8000F87401B800028004C333D8FCC0E0EF131F
:103A90001313541FF8742A28F582741B123B06D0A6
:103AA000E0F8E05860030239E80FEFC3940E40CD10
:103AB000901B59E05407F87401B800028004C33326
:103AC000D8FCFAE0123B0BE04AF0901B42E0F8749D
:103AD0003528F582741B123B06EE123B3B901B2CE3
:103AE000E0FCA3E0FD7A1E901B42123B1D7C357D5D
:103AF0001B7A0A7982122B0D122D4779007F04025E
:103B00001F37F582741B3400F58322131313541FDF
:103B1000F8745E28F582741B3400F58322E0248358
:103B2000F9122B0D22901B2CE0F8A3E0F9E84922B2
:103B3000901B2CE0241A123F92E022F07C5C7D1B4B
:103B40007A047980122B0D22C082C083E9F8901B81
:103B500035E06870047900800279FF0239BC74F79F
:103B6000121D51E9FE901B35E06E700E74FFF07C63
:103B7000357D1B7A0A7982122B0D0237D074EB1235
:103B80001D5174F312215A8914ECFEEDFF751301D7
:103B9000750A00EA24FFF508EB123F76AE82AF8388
:103BA000901B2EE064017059901B59E0651470055C
:103BB000123B25704C7902023C5D8E828F83E0F8C7
:103BC000C394054003023E0DE8C0E0901B2CE024A6
:103BD0001B123F8ED0E0F0901B2BE0C2E0F0C3E55B
:103BE000089510E5099400406FC3E5089510F508A5
:103BF000E5099400F50985120CEE250CFEEF340062
:103C0000FFE50845096054E50A70508E828F83E015
:103C1000F50CA3AE82AF837B00EB75F003A4F8A98B
:103C2000F0743028F582748039F583E0650C7004F7
:103C30008B0F800A0BEBC3940D40DE750FFF901BBA
:103C40002EE064016007E50CC394E0500BC3E50867
:103C50009402E5099400500F750A02A90A740D1226
:103C600020F97F0D021F37E50824FEF508E509124B
:103C70003F76A98374FF650F6003023D41740F25F1
:103C80000CC394044003023D358E828F830EE9FFFE
:103C9000E0F8E508687002E5096003023D35E513C8
:103CA00060B6851882851983AC82AD83EEFAEFFB8E
:103CB000A908122DCBE9F50A701F122DD1EEFCEFE9
:103CC000FDAA08E50C333354FCF8901B42E0C454C1
:103CD000F0282924C0F9122B0D851882851983E05C
:103CE00064017048E50C2419FCE434FFFD750801FB
:103CF000750900ECF8EDF97A087B00121C00EA78EF
:103D00000812225CE508F4FEECF8EDF97A087B0075
:103D1000121C0088088909742A2508F582741B354D
:103D200009F583E05EF0122DC5023C5BE50A7003E5
:103D3000023C5B80F174A0650C6003023C58023CBD
:103D40005B7513008E828F83E0FB0EE9FF8B12E51B
:103D50000F75F003A4F8A9F0743128F58274803946
:103D6000F583E0F88B828582106B604374EA650C02
:103D70006003023C58E8C395125003023C58EEF829
:103D8000EFF98B0B7C0074012CC0E08C0C740112D9
:103D9000231FE582250CF582E583123B06D0E0F077
:103DA0000CC3940C40E0EBC3940D5061023F04E55A
:103DB0000C2420603F14604A14606B14607B147004
:103DC00003023E58147003023E63147003023E6EF9
:103DD000147003023E7B147003023E9F14700302B2
:103DE0003EC6146099147003023BBA24FB700302B0
:103DF0003F538019123F9DEAF0A3EBF0901B2A027B
:103E00003BDA8E828F83E0F8C394024006750A0283
:103E1000023BDEE8C0E0123FB0A3A3A3A3A3A3A389
:103E2000A3D0E0023BDD8E828F83E0F8C394035081
:103E3000DCE8C0E0123F8980E08E828F83E0C0E042
:103E4000123F89A3A3A3A3A3A3A3A3A3D0E0F090AD
:103E50001B2AE0C2E1023BDD123F9D123FBEC2E2DF
:103E6000023BDD123F9D123FBCC2E3023BDD123F2D
:103E70009DA3A3123FBCC2E4023BDD8E828F83E090
:103E8000F874FF28C394025084E8C0E0901B2CE033
:103E9000240B123F8ED0E0123FC8C2E5023BDD8EFC
:103EA000828F83E0F874FF28C394104003023E0D14
:103EB000E8C0E0901B2CE0240C123F8ED0E0123FB3
:103EC000C8C2E6023BDD8E828F83E0F8C3940D40CA
:103ED00003023E0DE8C0E0901B2CE0240D123F8E43
:103EE000D0E0123FC8C2E7023BDD0CECC3940C40AB
:103EF00019740C6C7003023E0D88828983A3A8821A
:103F0000A983150BE50B60297C008C0C740112232E
:103F10001FE582250CFAE5833400FB8A828B83E05F
:103F2000FD88828983E06D70C18A828B83E4F08092
:103F3000C08E0C8F0D750E00780C1220C8AC107D51
:103F400000901B2CE0240EFAA3E0123F801220F90F
:103F5000023BDE8E828F83E0F8C394054003023E6D
:103F60000DE8C0E0901B2CE0241A123F8ED0E0F048
:103F7000901B2B023E5234FFF5098E828F83A322C1
:103F80003400FB122867740322123FB0A322123FB1
:103F90009222F8A3E03400F988828983228E828FEE
:103FA00083E0FAA3E0F9EA2400E439FB123FB022EF
:103FB000901B2CE0F8A3E0F583888222A3A3A3A39F
:103FC000EAF0A3EB123FC822F0901B2AE02274F122
:103FD000121D5174ED12215AECFEEDFF750A00EA34
:103FE00024FDF50B901B2EE0640170118E828F83EF
:103FF000A3E064017007E50BC394114006750A0243
:104000000240A2EE2402F8EF3400F98808890985FD
:104010001882851983AC82AD838882F583E0FA909B
:104020001B42E0F9122D6BE97005750A408073851B
:104030000882850983E0C0E0740112231FD0E0F0FC
:10404000740212231FE50BF08E828F83A3A3A3A912
:1040500082AA83890C8A0D750E00780C1220C885FF
:104060000B08AC087D00740612231FAA82AB8312D2
:1040700040AF1220F9740112231FAC82AD83740289
:10408000250BFA851882851983C082C083901B4254
:10409000E0333354FCD083D082F8E0282494F91222
:1040A0002B0DA90A74130234C47D00EEFAEFFB1243
:1040B000286774032274F5121D5174FC12215A8969
:1040C000098A0AECFEEDFF75080080020508123B24
:1040D00030F8E508C3985036851882851983AC827C
:1040E000AD837A04E508333354FCF8E509C454F091
:1040F000282484F912387370D3740312231FE065E7
:104100000A70C98E828F83E508F0790180027900F8
:1041100074041220F97F03021F3774F6121D5174C4
:10412000FE12215AE9FEEAFF8C088D098518828566
:1041300019837407F0A3E41241797B027AA879FF0E
:10414000122B43901B5BE0D2E0F078081220CCEFFA
:10415000F50878081220D07B0C740312231FE0FCB2
:10416000A3E0FD7A02EEF9122B7974031220F974A0
:10417000021220F97F02021F37F085188285198309
:10418000AC82AD832274EC121D51890A8A108B1106
:10419000ECFEEDFF8E128E828F83A3AE82AF837A08
:1041A0000B7B001228E58A088B09EA45097005791E
:1041B00000024278AC08AD0912386F70F2800A8EA6
:1041C000828F837401F00EE9FF850A0B74FF250BC3
:1041D000F50A04700302426C851082851183E0F5B4
:1041E0000CA3858210858311F9122D83E9FA8E8242
:1041F0008F83E50CF0A3AE82AF83A3A98374FF6A1B
:1042000060BDE50CC394E04010901B2EE06401609B
:10421000088E828F83740280AC8E828F83E4F00ECE
:10422000E9FFEA75F003A4F8A9F074D728F87480C0
:1042300039F988828983A3E0FA8E828F83F0A30EF6
:10424000AF8388828983A3A3E0F8E50828F50CE50D
:104250000912427D1220C88A0CAC0C1240A912200F
:10426000F98A0C8B0DAE0CAF0D0241C9AA08AB093F
:104270001228EBEEC39512F97F0C021F373400F5BC
:104280000D750E00780C2274F7121D51E9FE901B7B
:104290002EE4F074FF6E6010901B59E06E700312F4
:1042A0002D47901B2E7402F07A007B08901AAFE025
:1042B000F91228A90237D0C082C083E9FC7900E94D
:1042C00075F003A4FAABF074D72AF58274803BF53D
:1042D00083E06C600909E9C3940640E379FF023981
:1042E000BC74F6121D5174F712215AE9901AAFF0FE
:1042F000122BC175080875090078081220CC7403C8
:1043000012231FAC82AD837AE87B0F793F1229E735
:1043100074021220F978008808740112231FE582C4
:104320002508F582E583124F59F4700708E8C39415
:104330000840E4E8C394085010740112231FAC82B3
:10434000AD837A00798412277D851882851983E4EC
:10435000F0AC82AD837A017970122B1385188285B7
:104360001983E0701C7A0D7B2B122BC78518828570
:1043700019837401F0AC82AD83FA7970122B0D8031
:10438000077A137B2B122BC7901AF0E4F0901EC70C
:1043900074FFF012293F122D897A011248657409C1
:1043A0001220F97F02021F3774F7121D51EAFEEB4B
:1043B000FF54206012901AF0E0600312523DEEFAB2
:1043C000EF6420FB0244A5EF544060677901122797
:1043D000777CDD7D1A7A00796012277D7CDF7D1A7B
:1043E0007A00796412277D7CE37D1A7A0079621263
:1043F000277D901AEF74FFF0901EB774E8F0A37455
:10440000031244B179631244AAE4F07CB77D1EFA2A
:1044100079661244AA741E1244B179691244AA74CE
:10442000011244B1796C12277D12272FEEFAEF6446
:10443000408090EE700374106F700B901BD0E004FE
:10444000F0122BB5805BEE700374086F7053901BF5
:10445000CFE0F9122B73901AEE7401F0901BD1E0AB
:10446000F8740168701C901BD0E06004D2F08002E8
:10447000C2F07BFF7AFFA2F0E4334450F9122C091A
:10448000801F740268701A901BD0E06004D2F08024
:1044900002C2F07BFF7AFFA2F0E4334450F9122B02
:1044A000FD7A007B007F01021F3712277D901EB727
:1044B00022F07CB77D1E7A002274EE121D5174FE2C
:1044C00012215A8908ECFEEDFF7509008A82858267
:1044D00010751100E9C39490503674686508700631
:1044E0007509B40245E97CB77D1E7A00122765E99B
:1044F000F509750CB7750D1E750E00780C1220C8E5
:10450000AC10AD11EEFAEF1245F51220F90245E9B3
:10451000E9C394AF5019750C13750D2B780C12204C
:10452000CC122B4F74021220F9E9F5090245E9E992
:104530002450602914605814605F24F2700302450F
:10454000C11470030245C91470030245CE147003F0
:104550000245D624F270030245DE0245E6750C00E2
:10456000750B008016851882851983AA82AB83A9F2
:104570000B122771E97002050C050B90815BE0F8C6
:10458000E50BC39840DF8E828F83E50CF0805A9054
:104590001AEFE08E828F8380F3851882851983AAB3
:1045A00082AB83901AEFE0F9122771E9F88809705D
:1045B00038851882851983E0F50CA3E0F50D0244D7
:1045C000F88E828F83742D80C390815B80C48E822D
:1045D0008F8374CE80B68E828F83741080AE8E826D
:1045E0008F83740280A67509E8A90974021220F964
:1045F0007F0A021F37FB12286774032274F7121D0B
:10460000518908EAFEEBFF79E8E508603A14600991
:1046100014602B2403601E803574806E60307481BA
:104620006E602B74826E700D901AF3E08C828D8315
:10463000F079008019EFFAEEF9122B3D8010EFFAB5
:10464000EEF9122DAD8007EFFAEEF912294B024474
:10465000A574F2121D518A088B0AECFEEDFFE97079
:104660000302473614600C14700302472D240360C4
:104670002E800C7480650860067481650870057969
:10468000E802473D7482650870158E828F83E0F8DA
:10469000C3940340EAE8901AF3F0790002473D75AD
:1046A0000B00EAC3949050127468650860477A0062
:1046B000A90812277DE9F50B806FEAC394AF501962
:1046C000750C0D750D2B780C1220CCAA0AA90812B6
:1046D0002B4F74021220F980DCEA2450601714601A
:1046E0003A14601624F2600D14600A146007146016
:1046F0000424F27031750BB4802F901AEFE0FA7930
:104700006812277DE9F50B70208E828F83E0F470AC
:1047100018901AEFE0F9122D59800E8E828F83E0E7
:10472000901AEFF08003750BE8A90B8010AA0AA974
:1047300008122DB38007AA0AA9081229517F060280
:104740001F3774ED121D518A0D8C0A8D0B741312D4
:10475000231FE0F508A3E0F509890E750F00740228
:10476000780E12225C7400250EFE7480350FFFEE69
:104770002480F582EF34FDF583E0F9850882850910
:104780008312233DE50864137004E509642B70323D
:10479000E9602FEE2482F582EF34FDF583E0F50821
:1047A000A3E0850810F51175120078101220C88555
:1047B0000D08AC087D00AA0AAB0B1245F61220F9D1
:1047C00079007F0B021F3774F7121D5174FF1221FD
:1047D0005A7A137B2B122BC7901AEEE06008640103
:1047E00060047EB48049901ACBE0600814606214C3
:1047F0006055806B851882851983AC82AD837A0001
:104800007983122765E9FE7026851882851983E071
:10481000603F901AEE7401F07900122777901AE445
:10482000E0A2E040077A007B001227E3122D8FEE12
:10483000F9122BF7901AEEE06401700312486374CA
:10484000011220F90244A5122BC17A0D7B2B122BE9
:10485000C77A007B40901AAFE0F91228A980D57E74
:10486000E880CC7A00901AAFE0F91228FD22C082CD
:10487000C083901AEEE06401600C7BFF7AFF79B48C
:10488000122BFD0249127ACA7B1B7905122B199053
:104890001AB5E412499B901AB5F07A008013124FB2
:1048A0004EC0E074B628F582741A12503DD0E0F084
:1048B0000A12501B40E87A00802512500F124F59FF
:1048C000C0E074C228F582741A12503DD0E0F0C0E6
:1048D000E074B928F582741A12503DD0E0F00A1243
:1048E000502540D6EA901AC1F0901AB174FFF0A397
:1048F000F0A3F0A3F0901AC0F0901AE1125030909B
:104900001AC9E8F0A3E9F0901AEE7402124A7B1279
:1049100026C30249ACC082C083901AEEE0640260F4
:104920000AE064036005E0640470087405F0122670
:10493000C9800579B4122C038072C082C0837ACA00
:104940007B1B7905122B19901AB17430F0A3747582
:1049500012499B901AB3F07A008013124F4EC0E0B8
:1049600074B428F582741A12503DD0E0F00A125047
:104970001B40E87A00801612500F124F59C0E074A5
:10498000B728F582741A12503DD0E0F00A12502573
:1049900040E57AB17B1A12269F8011F0901AD2E07E
:1049A000FB22C082C0831226A58001F0D083D08272
:1049B00002209174F7121D51901AEEE06401700606
:1049C0007408F01227470244A574F0121D5174FEBA
:1049D00012215A89088A0A8C0C8D0D8B09741212C7
:1049E000231FE0F50B741312231FE0FEA3E0FF85E5
:1049F0001882851983AA82AB83122771E960127528
:104A00000FE8A90F122C1B74021220F97F08021F55
:104A1000377402650A700EEEFCEFFDAA09A90812B0
:104A20002D95E9F509E508901AB1F0E50AA3F0A380
:104A3000E50CF0A3E50DF0E509901AB6F0E50B9052
:104A40001AB5124A7B122687E9F8880F70B48E0CCB
:104A50008F0D750E00780C1220C8850B0CAC0C7DE8
:104A600000901AB9E0FAA3E01245F51220F9901A65
:104A7000EE7407124A7B12268D808CF07AB17B1A75
:104A80002274F7121D51E9600514600F80137AFF3C
:104A90007BFF1227E3122C270244A57A007B0080BB
:104AA000F179E880F0C082C0831227E3122C2D0236
:104AB00049ACC082C0837900122C330249ACC08259
:104AC000C0837900122C390249AC74F5121D519043
:104AD0001AF1125030E849600BE0F5838882122306
:104AE0003D024CC3EA2402F8EB3400F98808890936
:104AF0008A828B83A3AE82AF838A828B83E0147019
:104B000003024CC0147003024C9F14607524FE70A5
:104B100003024BDC147003024BE224FE7003024CD0
:104B200054147003024C2E24FC601B147003024CBE
:104B300076147003024C59147003024BFE14700378
:104B4000024BE8024CC38E828F83E07004740180B4
:104B500001E4901AEEF0A2E05003124863901AE4C8
:104B6000E0A2E040077A007B001227E38E828F8369
:104B7000E07003122D8F8E828F83E0F9122BF702E3
:104B80004CC3901EC7E0F47003024CC38882898333
:104B9000E0F8901EC7E0686003024CC3901AEE7400
:104BA00009F0901BD0E4F0850882124CC8124CDF4B
:104BB00070137C647D007A007B10901AAFE0F912CC
:104BC0002921024CC3901AEE7401F0901EC8E0FB3C
:104BD000901EC7124CD3122C09024CC3122BA902EF
:104BE0004CC3122BAF024CC3901AEEE06405600375
:104BF000024CC37401F07900122C03024CC38E8264
:104C00008F83E0F50A701F7CB07D047A007B2090D2
:104C10001AAFE0F9122921E9F8880A7009901AF010
:104C20007401F0024CC37BFF7AFFA90A80A8124CE2
:104C3000DC7016901AEE7409F0901BD0E4F08882B4
:104C4000124CC87402F0024BB27BFF7AFF79221239
:104C50002BFD806F122BBB806A8E828F83E0F9124E
:104C60002DA78E828F83E0F9122C158E828F83E020
:104C7000F9122753804D901AEE7401F088828983CF
:104C8000E0F9122DA7E96401850882850983700780
:104C9000E0F9122C15802C124CD3122C0F80241208
:104CA0004CDCF9122D9BE9701A8E828F83E0F91289
:104CB0002957E9700E8E828F83E0F9122C1B800336
:104CC000122BA37F03021F378983E0901BCFF09044
:104CD0001BD122E0FA8E828F83E0F922901AEE74C3
:104CE00001F08E828F83E022C082C083901AF1EAA5
:104CF000F0A3EB0249AB74EB121D51EA2402F50E4E
:104D0000EB3400F50F850E82F583E0F8EA2403F515
:104D100012EB3400F513EA2406F510EB3400F5111C
:104D2000EA2407FEEB3400FF8A828B83A385820C82
:104D300085830DEA2405F50AEB3400F50BEA240817
:104D4000F508EB3400F509E8701E850882850983B3
:104D50001252FF850A82850B83E0FA850C82850D4D
:104D600083E0F912294580457402687046850882FF
:104D7000850983121FB7850A82850B83E0F51478B5
:104D8000141220D08E828F83E0FD851082851183DE
:104D9000E0FC851282851383E0FAA3E0FB850C8298
:104DA000850D83E0F9122DA174031220F9E9600347
:104DB000024EB2850E82850F83E0FA74016A6003A9
:104DC000024E6E8E828F83E0A2E25003024E6E8509
:104DD0000882850983E0F8A3E0F5838882E0640413
:104DE0006003024E6E8E828F83E0A2E05003024E7B
:104DF000B27A227B001228E58A088B09EA450970FD
:104E000003024EB28E828F83E0A2E150047E0880BE
:104E1000027E008A828B837405F0A3E4F075109FF4
:104E2000751180F51278101220C87C207D00EA24CC
:104E3000020A0AEB34001245F51220F97808122014
:104E4000CC750A22780A1220D0EE4404FB901AE5B1
:104E50001252FF7A01850C82850D83E0F9122B79BD
:104E600074031220F9AA08AB091228EB80448508C4
:104E700082850983121FB7850A82850B83E0F508B6
:104E800078081220D08E828F83E0F50878081220EF
:104E9000D0851082851183E0FB85128285138312F1
:104EA00052FF850C82850D83E0F9122C21740412C7
:104EB00020F97F0D021F3774F5121D51901AEEE094
:104EC0006402707F7404F08A828B83A3A882A98312
:104ED000E070787E0080080CECC39406402E0EEA49
:104EE0002417F582EB125233FCEEC39C505D8E0802
:104EF000EA2508FCEB3400FDEC2427F582ED124F87
:104F000059FD74FE2DC3940E50417C008C0874CC66
:104F10002508F582741A124F59FF6D600574FF6FF2
:104F200070B588088909750A0078081220C87C3194
:104F30007D007A3A7B1E1245F61220F9901AEE7423
:104F4000038007E0640370037404F0024CC38A8298
:104F5000A88274D328F582741A3400F583E022C045
:104F600082C083901AEEE064036003024FF6901E45
:104F70003BE0901AB1F0901E3C125030901ABAE803
:104F8000F0A3E9F07C3E7D1E7AB27B1A1228619074
:104F90001AD2E0FB901ABCF07A00800C124F4EC07F
:104FA000E0125036D0E0F00A12501B40EF7A008039
:104FB0001612500F124F59C0E074C028F582741AAF
:104FC00012503DD0E0F00A12502540E5901AE4E07E
:104FD000A2E2901AC750107403F07CC77D1A7A01C0
:104FE000798212294B8002E4F0901AEE7406124A7C
:104FF0007B1227058016E064026005E06404700CF3
:105000007401F07BFF7AFF7921122BFD0249AC8AF3
:1050100082A88274D628F582741A22EBC313540333
:10502000F8EAC39822EBC4540F5407F8EAC3982255
:10503000E0F8A3E0F92274BD28F582741A3400F573
:105040008322C082C08374FE12215A85188285197A
:1050500083AA82AB83901BCFE0F9122771E960032A
:10506000025104901BD0E0FA74075AF87401B8009A
:10507000028004C333D8FCC0E0EA131313541FF8B2
:10508000851882851983E028F8A3E03400F9E82424
:105090002BF582E912503DD0E0F8E058702D901BBE
:1050A000D0E004F0C3940840BA901AEE7401F09076
:1050B0001BD1E0F8740268700512511A8051740116
:1050C0006870A012511A122C09804774026A70127B
:1050D000901BD1E06401701E901EC7E0F9122D2FC5
:1050E000803074036A700F901BD1E0F8740268601E
:1050F00021740168601C7A007B10901AAFE0F912ED
:1051000028A9800E901AEE7401F012512079221213
:105110002BFD74021220F90249AC125120790022B1
:10512000851882851983E02424F8A3E03400F988E7
:10513000828983E0FB901BCFE0FA2274F6121D51A6
:10514000EAFEEBFFEE2430F582EF124F59901AC7BA
:10515000F0F508EE2416F582EF125233F5097A00C5
:105160007B20901AAFE0F9122927E5096021901AF7
:10517000F0E0601BEE240CF582EF124F59A2E250D2
:105180000EEE2431F582EF124F59C394035007906D
:105190001AB174B4800F901AC7E0F4901AB1700479
:1051A00074B18001E412499B901ABCF07A00800C23
:1051B000124F4EC0E0125036D0E0F00A12501B40A1
:1051C000EF7A00801612500F124F59C0E074C028B9
:1051D000F582741A12503DD0E0F00A12502540E5D5
:1051E0008E828F83A3A3125030901AB2E8F0A3E905
:1051F000F0EE2404FCEF3400FD7AB47B1A1228612F
:105200007AB17B1A122717901AB1E0701AE508904C
:105210001EC7F0EE2426F582EF124F59901EC8F0FB
:10522000901AF0E4F08009901AF0E0600312523D09
:105230000243A33400F583E0C313540322E4F07B5C
:10524000FF7AFF7923122C0922C082C083901ACBE7
:105250007401F07C067D0079007ACC7B1A122873E9
:10526000901AD2E4F07C03FDF97AD37B1A122873EA
:105270007C077D0079007AD67B1A122873901ADD9C
:105280007410F0A3E4F0A3744AF0A37401F0A374C3
:1052900064F0A3E4F0A3F0A3740CF0A3E4F0A3F093
:1052A0007C07FDF97AE77B1A122873901AF37424AD
:1052B0000249AB74F5121D51EAFEEBFF750A008539
:1052C0000A087509007402780812225C7400250827
:1052D000F874803509F988828983A3A31252FF8864
:1052E000828983A3E0FA88828983E0F98E828F83A2
:1052F00012233D050AE50AC3940C40C3024CC3E0E7
:10530000FCA3E0FD2274F4121D5174FC12215A7E9C
:1053100000901869E4F0901866F07F3D75080475F8
:10532000090078081220CC740212231FAC82AD83CE
:105330007A007B00EF1259361220F9851882851900
:1053400083C082C08390812D78081222E0D083D060
:105350008278081221707019901866E06010F912B6
:105360002ADDEFF9122ADD901866E4F08021EF8043
:10537000FA85188285198378081222E0E508450924
:10538000450A450B7004EFFE8005EFF9122ADD0F88
:10539000EFC3943F4086901866E07026EE7018794F
:1053A0003D122ACB9018677404F0A3E4F0901869BA
:1053B000E0601979008017F0122AE3EEF9122AF55D
:1053C000800AEE6004F9122AD7122AE37901025406
:1053D000AA74F7121D5174FC12215AE9FE90812D16
:1053E0001223088518828519831222FC851882856C
:1053F0001983AC82AD837A007B00122B019018696F
:10540000E07005EE901866F074041220F97F010236
:105410001F37C082C08374FC12215A90813D122331
:10542000088518828519831222FC851882851983C4
:10543000AC82AD837A007B00901866E0F9122B01F4
:1054400074041220F9D083D08202209174F4121DCA
:105450005174FF12215A8908794E12296FE96006AA
:10546000901869E060089018697401F08038A90804
:105470001229F37E007F00750A01750B00780A126D
:1054800020CC740212231FAC82AD83EEFAEFFBA98D
:10549000081259371220F9851882851983E0F470B3
:1054A000C51254FC40D17401800274041220F97FAB
:1054B00004021F3774F4121D5174FF12215A890817
:1054C0007E007F00750A01750B00780A1220CC74EB
:1054D0000212231FAC82AD83EEFAEFFBA90812592A
:1054E000371220F9851882851983E0F46007A9082E
:1054F000122AD780051254FC40CA80AAEE24010E5D
:10550000EF3400FFC394102274F4121D5174FC1286
:10551000215A7EFC7F0F7508047509007808122057
:10552000CC740212231F12592A1220F98518828581
:105530001983C082C08390813178081222E0D08321
:10554000D0827808122170700AEE24FCFEEF12550A
:10555000F450C3EE2404F8EF3400F9901867E8F033
:10556000A3E9F00254AA74F4121D5174FC12215ADA
:105570008909EAFEEBFF8C08EE24FCFEEF1255F4DD
:10558000406B750A04750B00780A1220CC74021265
:10559000231FAC82AD83EEFAEFFBA9091259371233
:1055A00020F9740212231FE0F8A3E0F98518828520
:1055B000198385080AE0650A7002A3E0700AEEC349
:1055C00098FAEF9400FB8029E9548070ABE824043A
:1055D000FAE93400FBC3EE9AEF9B400EEEC398F855
:1055E000EF99F9E824FCFEE9809312299F7A007B69
:1055F000000254AA34FFFFC3EE9404EF9400227417
:10560000EC121D5174FC12215A890AEAFEEBFF8C40
:105610000B741812231FE0F50EA3E0F50F741A1295
:10562000231FE0F50CA3E0F50D851882851983741E
:10563000FFF0A3F0E50F4480F9740212231FE50E7A
:10564000F0A3E9F0EE250EF508EF350FF509851802
:1056500082851983AC82AD83AA08FBA90A122B01AB
:10566000740212231F1256EE7402780E1222C2E543
:105670000EF510901869E07050750F00780E12202A
:10568000CCAC0CAD0D8E0E8F0F7402780E1222C2B0
:10569000850A12F513740A781212225CE50E2400B2
:1056A000FAE50F3513FB1229ED74021220F9E5100B
:1056B000F50E780E1220D0AC0CAD0DEEFAEFFBA972
:1056C0000A122AFB74011220F9850B0CE50C8518CF
:1056D00082851983F0A374801256F2851882851989
:1056E000831256EE74041220F97F0C021F37A3E0D8
:1056F000547FF0851882851983AC82AD83AA08ABEC
:1057000009A90A122B012274EA121D5174F8122100
:105710005A8910750DFF743D65107005750C3E803B
:1057200003750C3D750A04750B00901867E024FCA6
:10573000FEA3E08005EE24FCFEEF1255F4500302B8
:105740005867901869E0600302588175080475096C
:105750000078081220CC740212231FAC82AD83EEB5
:10576000FAEFFBA9101259371220F9851882851912
:1057700083E0F47003A3E0F47030740212231FE09E
:10578000F8A3E0F9548070AD125A96EE98EF994064
:1057900013740212231F12588BF8EF99F9E824FCB6
:1057A000FEE9809612299F02588185188285198307
:1057B000A3E0548070DB851882851983850D08E08D
:1057C00065087002A3E060C9851882851983E0F539
:1057D0000DFCAA0AAB0BA90C122AE98B09EA4509B0
:1057E00070AF740212231F12588BF508EF99F50958
:1057F00088148915750E00750F0075120475130055
:1058000078121220CC740612231FAC82AD83E508F7
:10581000250EFAE509350F1259311220F9740412D8
:10582000231FAC82AD83E50A250EFAE50B350FFB8D
:10583000A90C122B01E50E2404F50EE50F3400F53A
:105840000FC3E514950EE515950F50AE74021223A3
:105850001FE02404F8A3E03400F9E50A28F50AE57E
:105860000B39F50B025791A90C122ACB901869E05D
:10587000700A901867E50AF0A3E50BF0A910122A48
:10588000D774081220F97F0E021F37E0F8A3E0F961
:10589000EEC3982274F0121D5174FC12215A890F24
:1058A000EAFEEBFF8C0A8D0B741412231FE0F5093E
:1058B0008014EE2404FEEF3400FFE50A2404F50A08
:1058C000E50B3400F50B85090874FF2508F509047C
:1058D000604E750C04750D00780C1220CC74021209
:1058E000231FAC82AD83EEFAEFFBA90F12593712DA
:1058F00020F9850A0C850B0D750E00780C1220C856
:105900007C047D00740312231FA982AA837B0012EA
:10591000286D74031220F9E970989018697401F0E9
:1059200074041220F97F08021F37AC82AD83EEFAAF
:10593000EFFB901866E0F91229E774022274F11265
:105940001D51890E8A088B09ECFEEDFF901869E065
:10595000704D750A01750B00780A1220CC8A0A8BEB
:105960000B7402780A1222C2890CF50D740A780CA5
:1059700012225CE50A2400FAE50B350DFB1229ED35
:1059800074021220F9750A01780A1220D0EEFCEF99
:10599000FDAA08AB09A90E122AFB74011220F97F97
:1059A00007021F37C082C083122AC5E9700312297B
:1059B0009F02544574F0121D5174FF12215A890838
:1059C0008A098C0A8D0BAC08125AD48A0C8B0DAE46
:1059D0000CAF0DEE4F604D750E00803B750C0175E0
:1059E0000D00780C1220CC740212231F12592A12B7
:1059F00020F9851882851983E0F8850E0CE50A25C3
:105A00000CF582E50B3400F583E0687017EE240195
:105A10000EEF3400FF050EE50EC3950940BEE50903
:105A2000650E606B85090CE50C125B66121C008824
:105A30000E890F7402780E12225C850E0C850F0DF4
:105A4000901867E0250CF8A3E0350DF9125A96E896
:105A50009401E994104003125B72780A1220CC780A
:105A60000C1220CCAC08125ADB122AEF740412205C
:105A7000F9901869E06004790A8016E50C2404F8AE
:105A8000E50D3400F9901867E028F0A3E039F079CB
:105A9000007401025922E82404F8E93400F9C32211
:105AA00074F4121D51890A8A0BECFEEDFFAC0A1248
:105AB0005AD4EA4B6019850B087509007808122042
:105AC000CCEEFCEFFD1259321220F97900800279F8
:105AD0000A0254AF125ADB122AE922901867E0FA40
